{"contracts/Bootstrapper.sol":{"Bootstrapper":{"abi":[{"inputs":[{"internalType":"address","name":"router_","type":"address"},{"internalType":"address","name":"creator_","type":"address"},{"internalType":"uint256","name":"skimFeeBps_","type":"uint256"}],"stateMutability":"nonpayable","type":"constructor"},{"inputs":[{"internalType":"address","name":"tokenA","type":"address"},{"internalType":"address","name":"tokenB","type":"address"},{"internalType":"bool","name":"stable","type":"bool"},{"internalType":"uint256","name":"amountADesired","type":"uint256"},{"internalType":"uint256","name":"amountBDesired","type":"uint256"},{"internalType":"uint256","name":"amountAMin","type":"uint256"},{"internalType":"uint256","name":"amountBMin","type":"uint256"},{"internalType":"address","name":"to","type":"address"}],"name":"addLiquidity","outputs":[{"internalType":"uint256","name":"amountA","type":"uint256"},{"internalType":"uint256","name":"amountB","type":"uint256"},{"internalType":"uint256","name":"liquidity","type":"uint256"}],"stateMutability":"nonpayable","type":"function"},{"inputs":[],"name":"creator","outputs":[{"internalType":"address","name":"","type":"address"}],"stateMutability":"view","type":"function"},{"inputs":[],"name":"router","outputs":[{"internalType":"address","name":"","type":"address"}],"stateMutability":"view","type":"function"},{"inputs":[],"name":"skimFeeBps","outputs":[{"internalType":"uint256","name":"","type":"uint256"}],"stateMutability":"view","type":"function"}],"evm":{"bytecode":{"linkReferences":{},"object":"608060405234801561001057600080fd5b506040516108543803806108548339818101604052810190610032919061015b565b826000806101000a81548173ffffffffffffffffffffffffffffffffffffffff021916908373ffffffffffffffffffffffffffffffffffffffff16021790555081600160006101000a81548173ffffffffffffffffffffffffffffffffffffffff021916908373ffffffffffffffffffffffffffffffffffffffff160217905550806002819055505050506101ae565b600080fd5b600073ffffffffffffffffffffffffffffffffffffffff82169050919050565b60006100f2826100c7565b9050919050565b610102816100e7565b811461010d57600080fd5b50565b60008151905061011f816100f9565b92915050565b6000819050919050565b61013881610125565b811461014357600080fd5b50565b6000815190506101558161012f565b92915050565b600080600060608486031215610174576101736100c2565b5b600061018286828701610110565b935050602061019386828701610110565b92505060406101a486828701610146565b9150509250925092565b610697806101bd6000396000f3fe608060405234801561001057600080fd5b506004361061004c5760003560e01c806302d05d3f14610051578063790ba7b51461006f578063f37eb724146100a1578063f887ea40146100bf575b600080fd5b6100596100dd565b6040516100669190610287565b60405180910390f35b61008960048036038101906100849190610341565b610103565b60405161009893929190610406565b60405180910390f35b6100a961021c565b6040516100b6919061043d565b60405180910390f35b6100c7610222565b6040516100d49190610287565b60405180910390f35b600160009054906101000a900473ffffffffffffffffffffffffffffffffffffffff1681565b60008060008060009054906101000a900473ffffffffffffffffffffffffffffffffffffffff1673ffffffffffffffffffffffffffffffffffffffff16635a47ddc38c8c8c8c8c8c8c8c6104b04261015b9190610487565b6040518a63ffffffff1660e01b815260040161017f999897969594939291906104ca565b6060604051808303816000875af115801561019e573d6000803e3d6000fd5b505050506040513d601f19601f820116820180604052508101906101c2919061056c565b8093508194508295505050506000612710600254856101e191906105bf565b6101eb9190610630565b905060006127106002548561020091906105bf565b61020a9190610630565b90505050985098509895505050505050565b60025481565b60008054906101000a900473ffffffffffffffffffffffffffffffffffffffff1681565b600073ffffffffffffffffffffffffffffffffffffffff82169050919050565b600061027182610246565b9050919050565b61028181610266565b82525050565b600060208201905061029c6000830184610278565b92915050565b600080fd5b6102b081610266565b81146102bb57600080fd5b50565b6000813590506102cd816102a7565b92915050565b60008115159050919050565b6102e8816102d3565b81146102f357600080fd5b50565b600081359050610305816102df565b92915050565b6000819050919050565b61031e8161030b565b811461032957600080fd5b50565b60008135905061033b81610315565b92915050565b600080600080600080600080610100898b031215610362576103616102a2565b5b60006103708b828c016102be565b98505060206103818b828c016102be565b97505060406103928b828c016102f6565b96505060606103a38b828c0161032c565b95505060806103b48b828c0161032c565b94505060a06103c58b828c0161032c565b93505060c06103d68b828c0161032c565b92505060e06103e78b828c016102be565b9150509295985092959890939650565b6104008161030b565b82525050565b600060608201905061041b60008301866103f7565b61042860208301856103f7565b61043560408301846103f7565b949350505050565b600060208201905061045260008301846103f7565b92915050565b7f4e487b7100000000000000000000000000000000000000000000000000000000600052601160045260246000fd5b60006104928261030b565b915061049d8361030b565b92508282019050808211156104b5576104b4610458565b5b92915050565b6104c4816102d3565b82525050565b6000610120820190506104e0600083018c610278565b6104ed602083018b610278565b6104fa604083018a6104bb565b61050760608301896103f7565b61051460808301886103f7565b61052160a08301876103f7565b61052e60c08301866103f7565b61053b60e0830185610278565b6105496101008301846103f7565b9a9950505050505050505050565b60008151905061056681610315565b92915050565b600080600060608486031215610585576105846102a2565b5b600061059386828701610557565b93505060206105a486828701610557565b92505060406105b586828701610557565b9150509250925092565b60006105ca8261030b565b91506105d58361030b565b92508282026105e38161030b565b915082820484148315176105fa576105f9610458565b5b5092915050565b7f4e487b7100000000000000000000000000000000000000000000000000000000600052601260045260246000fd5b600061063b8261030b565b91506106468361030b565b92508261065657610655610601565b5b82820490509291505056fea26469706673582212208593d834195539655f7a96ad6eba14e080ab5979f1f8e8bab53885e5d66fb73964736f6c63430008140033","opcodes":"PUSH1 0x80 PUSH1 0x40 MSTORE CALLVALUE DUP1 ISZERO PUSH2 0x10 JUMPI PUSH1 0x0 DUP1 REVERT JUMPDEST POP PUSH1 0x40 MLOAD PUSH2 0x854 CODESIZE SUB DUP1 PUSH2 0x854 DUP4 CODECOPY DUP2 DUP2 ADD PUSH1 0x40 MSTORE DUP2 ADD SWAP1 PUSH2 0x32 SWAP2 SWAP1 PUSH2 0x15B JUMP JUMPDEST DUP3 PUSH1 0x0 DUP1 PUSH2 0x100 EXP DUP2 SLOAD DUP2 PUSH20 0xFFFFFFFFFFFFFFFFFFFFFFFFFFFFFFFFFFFFFFFF MUL NOT AND SWAP1 DUP4 PUSH20 0xFFFFFFFFFFFFFFFFFFFFFFFFFFFFFFFFFFFFFFFF AND MUL OR SWAP1 SSTORE POP DUP2 PUSH1 0x1 PUSH1 0x0 PUSH2 0x100 EXP DUP2 SLOAD DUP2 PUSH20 0xFFFFFFFFFFFFFFFFFFFFFFFFFFFFFFFFFFFFFFFF MUL NOT AND SWAP1 DUP4 PUSH20 0xFFFFFFFFFFFFFFFFFFFFFFFFFFFFFFFFFFFFFFFF AND MUL OR SWAP1 SSTORE POP DUP1 PUSH1 0x2 DUP2 SWAP1 SSTORE POP POP POP POP PUSH2 0x1AE JUMP JUMPDEST PUSH1 0x0 DUP1 REVERT JUMPDEST PUSH1 0x0 PUSH20 0xFFFFFFFFFFFFFFFFFFFFFFFFFFFFFFFFFFFFFFFF DUP3 AND SWAP1 POP SWAP2 SWAP1 POP JUMP JUMPDEST PUSH1 0x0 PUSH2 0xF2 DUP3 PUSH2 0xC7 JUMP JUMPDEST SWAP1 POP SWAP2 SWAP1 POP JUMP JUMPDEST PUSH2 0x102 DUP2 PUSH2 0xE7 JUMP JUMPDEST DUP2 EQ PUSH2 0x10D JUMPI PUSH1 0x0 DUP1 REVERT JUMPDEST POP JUMP JUMPDEST PUSH1 0x0 DUP2 MLOAD SWAP1 POP PUSH2 0x11F DUP2 PUSH2 0xF9 JUMP JUMPDEST SWAP3 SWAP2 POP POP JUMP JUMPDEST PUSH1 0x0 DUP2 SWAP1 POP SWAP2 SWAP1 POP JUMP JUMPDEST PUSH2 0x138 DUP2 PUSH2 0x125 JUMP JUMPDEST DUP2 EQ PUSH2 0x143 JUMPI PUSH1 0x0 DUP1 REVERT JUMPDEST POP JUMP JUMPDEST PUSH1 0x0 DUP2 MLOAD SWAP1 POP PUSH2 0x155 DUP2 PUSH2 0x12F JUMP JUMPDEST SWAP3 SWAP2 POP POP JUMP JUMPDEST PUSH1 0x0 DUP1 PUSH1 0x0 PUSH1 0x60 DUP5 DUP7 SUB SLT ISZERO PUSH2 0x174 JUMPI PUSH2 0x173 PUSH2 0xC2 JUMP JUMPDEST JUMPDEST PUSH1 0x0 PUSH2 0x182 DUP7 DUP3 DUP8 ADD PUSH2 0x110 JUMP JUMPDEST SWAP4 POP POP PUSH1 0x20 PUSH2 0x193 DUP7 DUP3 DUP8 ADD PUSH2 0x110 JUMP JUMPDEST SWAP3 POP POP PUSH1 0x40 PUSH2 0x1A4 DUP7 DUP3 DUP8 ADD PUSH2 0x146 JUMP JUMPDEST SWAP2 POP POP SWAP3 POP SWAP3 POP SWAP3 JUMP JUMPDEST PUSH2 0x697 DUP1 PUSH2 0x1BD PUSH1 0x0 CODECOPY PUSH1 0x0 RETURN INVALID PUSH1 0x80 PUSH1 0x40 MSTORE CALLVALUE DUP1 ISZERO PUSH2 0x10 JUMPI PUSH1 0x0 DUP1 REVERT JUMPDEST POP PUSH1 0x4 CALLDATASIZE LT PUSH2 0x4C JUMPI PUSH1 0x0 CALLDATALOAD PUSH1 0xE0 SHR DUP1 PUSH4 0x2D05D3F EQ PUSH2 0x51 JUMPI DUP1 PUSH4 0x790BA7B5 EQ PUSH2 0x6F JUMPI DUP1 PUSH4 0xF37EB724 EQ PUSH2 0xA1 JUMPI DUP1 PUSH4 0xF887EA40 EQ PUSH2 0xBF JUMPI JUMPDEST PUSH1 0x0 DUP1 REVERT JUMPDEST PUSH2 0x59 PUSH2 0xDD JUMP JUMPDEST PUSH1 0x40 MLOAD PUSH2 0x66 SWAP2 SWAP1 PUSH2 0x287 JUMP JUMPDEST PUSH1 0x40 MLOAD DUP1 SWAP2 SUB SWAP1 RETURN JUMPDEST PUSH2 0x89 PUSH1 0x4 DUP1 CALLDATASIZE SUB DUP2 ADD SWAP1 PUSH2 0x84 SWAP2 SWAP1 PUSH2 0x341 JUMP JUMPDEST PUSH2 0x103 JUMP JUMPDEST PUSH1 0x40 MLOAD PUSH2 0x98 SWAP4 SWAP3 SWAP2 SWAP1 PUSH2 0x406 JUMP JUMPDEST PUSH1 0x40 MLOAD DUP1 SWAP2 SUB SWAP1 RETURN JUMPDEST PUSH2 0xA9 PUSH2 0x21C JUMP JUMPDEST PUSH1 0x40 MLOAD PUSH2 0xB6 SWAP2 SWAP1 PUSH2 0x43D JUMP JUMPDEST PUSH1 0x40 MLOAD DUP1 SWAP2 SUB SWAP1 RETURN JUMPDEST PUSH2 0xC7 PUSH2 0x222 JUMP JUMPDEST PUSH1 0x40 MLOAD PUSH2 0xD4 SWAP2 SWAP1 PUSH2 0x287 JUMP JUMPDEST PUSH1 0x40 MLOAD DUP1 SWAP2 SUB SWAP1 RETURN JUMPDEST PUSH1 0x1 PUSH1 0x0 SWAP1 SLOAD SWAP1 PUSH2 0x100 EXP SWAP1 DIV PUSH20 0xFFFFFFFFFFFFFFFFFFFFFFFFFFFFFFFFFFFFFFFF AND DUP2 JUMP JUMPDEST PUSH1 0x0 DUP1 PUSH1 0x0 DUP1 PUSH1 0x0 SWAP1 SLOAD SWAP1 PUSH2 0x100 EXP SWAP1 DIV PUSH20 0xFFFFFFFFFFFFFFFFFFFFFFFFFFFFFFFFFFFFFFFF AND PUSH20 0xFFFFFFFFFFFFFFFFFFFFFFFFFFFFFFFFFFFFFFFF AND PUSH4 0x5A47DDC3 DUP13 DUP13 DUP13 DUP13 DUP13 DUP13 DUP13 DUP13 PUSH2 0x4B0 TIMESTAMP PUSH2 0x15B SWAP2 SWAP1 PUSH2 0x487 JUMP JUMPDEST PUSH1 0x40 MLOAD DUP11 PUSH4 0xFFFFFFFF AND PUSH1 0xE0 SHL DUP2 MSTORE PUSH1 0x4 ADD PUSH2 0x17F SWAP10 SWAP9 SWAP8 SWAP7 SWAP6 SWAP5 SWAP4 SWAP3 SWAP2 SWAP1 PUSH2 0x4CA JUMP JUMPDEST PUSH1 0x60 PUSH1 0x40 MLOAD DUP1 DUP4 SUB DUP2 PUSH1 0x0 DUP8 GAS CALL ISZERO DUP1 ISZERO PUSH2 0x19E JUMPI RETURNDATASIZE PUSH1 0x0 DUP1 RETURNDATACOPY RETURNDATASIZE PUSH1 0x0 REVERT JUMPDEST POP POP POP POP PUSH1 0x40 MLOAD RETURNDATASIZE PUSH1 0x1F NOT PUSH1 0x1F DUP3 ADD AND DUP3 ADD DUP1 PUSH1 0x40 MSTORE POP DUP2 ADD SWAP1 PUSH2 0x1C2 SWAP2 SWAP1 PUSH2 0x56C JUMP JUMPDEST DUP1 SWAP4 POP DUP2 SWAP5 POP DUP3 SWAP6 POP POP POP POP PUSH1 0x0 PUSH2 0x2710 PUSH1 0x2 SLOAD DUP6 PUSH2 0x1E1 SWAP2 SWAP1 PUSH2 0x5BF JUMP JUMPDEST PUSH2 0x1EB SWAP2 SWAP1 PUSH2 0x630 JUMP JUMPDEST SWAP1 POP PUSH1 0x0 PUSH2 0x2710 PUSH1 0x2 SLOAD DUP6 PUSH2 0x200 SWAP2 SWAP1 PUSH2 0x5BF JUMP JUMPDEST PUSH2 0x20A SWAP2 SWAP1 PUSH2 0x630 JUMP JUMPDEST SWAP1 POP POP POP SWAP9 POP SWAP9 POP SWAP9 SWAP6 POP POP POP POP POP POP JUMP JUMPDEST PUSH1 0x2 SLOAD DUP2 JUMP JUMPDEST PUSH1 0x0 DUP1 SLOAD SWAP1 PUSH2 0x100 EXP SWAP1 DIV PUSH20 0xFFFFFFFFFFFFFFFFFFFFFFFFFFFFFFFFFFFFFFFF AND DUP2 JUMP JUMPDEST PUSH1 0x0 PUSH20 0xFFFFFFFFFFFFFFFFFFFFFFFFFFFFFFFFFFFFFFFF DUP3 AND SWAP1 POP SWAP2 SWAP1 POP JUMP JUMPDEST PUSH1 0x0 PUSH2 0x271 DUP3 PUSH2 0x246 JUMP JUMPDEST SWAP1 POP SWAP2 SWAP1 POP JUMP JUMPDEST PUSH2 0x281 DUP2 PUSH2 0x266 JUMP JUMPDEST DUP3 MSTORE POP POP JUMP JUMPDEST PUSH1 0x0 PUSH1 0x20 DUP3 ADD SWAP1 POP PUSH2 0x29C PUSH1 0x0 DUP4 ADD DUP5 PUSH2 0x278 JUMP JUMPDEST SWAP3 SWAP2 POP POP JUMP JUMPDEST PUSH1 0x0 DUP1 REVERT JUMPDEST PUSH2 0x2B0 DUP2 PUSH2 0x266 JUMP JUMPDEST DUP2 EQ PUSH2 0x2BB JUMPI PUSH1 0x0 DUP1 REVERT JUMPDEST POP JUMP JUMPDEST PUSH1 0x0 DUP2 CALLDATALOAD SWAP1 POP PUSH2 0x2CD DUP2 PUSH2 0x2A7 JUMP JUMPDEST SWAP3 SWAP2 POP POP JUMP JUMPDEST PUSH1 0x0 DUP2 ISZERO ISZERO SWAP1 POP SWAP2 SWAP1 POP JUMP JUMPDEST PUSH2 0x2E8 DUP2 PUSH2 0x2D3 JUMP JUMPDEST DUP2 EQ PUSH2 0x2F3 JUMPI PUSH1 0x0 DUP1 REVERT JUMPDEST POP JUMP JUMPDEST PUSH1 0x0 DUP2 CALLDATALOAD SWAP1 POP PUSH2 0x305 DUP2 PUSH2 0x2DF JUMP JUMPDEST SWAP3 SWAP2 POP POP JUMP JUMPDEST PUSH1 0x0 DUP2 SWAP1 POP SWAP2 SWAP1 POP JUMP JUMPDEST PUSH2 0x31E DUP2 PUSH2 0x30B JUMP JUMPDEST DUP2 EQ PUSH2 0x329 JUMPI PUSH1 0x0 DUP1 REVERT JUMPDEST POP JUMP JUMPDEST PUSH1 0x0 DUP2 CALLDATALOAD SWAP1 POP PUSH2 0x33B DUP2 PUSH2 0x315 JUMP JUMPDEST SWAP3 SWAP2 POP POP JUMP JUMPDEST PUSH1 0x0 DUP1 PUSH1 0x0 DUP1 PUSH1 0x0 DUP1 PUSH1 0x0 DUP1 PUSH2 0x100 DUP10 DUP12 SUB SLT ISZERO PUSH2 0x362 JUMPI PUSH2 0x361 PUSH2 0x2A2 JUMP JUMPDEST JUMPDEST PUSH1 0x0 PUSH2 0x370 DUP12 DUP3 DUP13 ADD PUSH2 0x2BE JUMP JUMPDEST SWAP9 POP POP PUSH1 0x20 PUSH2 0x381 DUP12 DUP3 DUP13 ADD PUSH2 0x2BE JUMP JUMPDEST SWAP8 POP POP PUSH1 0x40 PUSH2 0x392 DUP12 DUP3 DUP13 ADD PUSH2 0x2F6 JUMP JUMPDEST SWAP7 POP POP PUSH1 0x60 PUSH2 0x3A3 DUP12 DUP3 DUP13 ADD PUSH2 0x32C JUMP JUMPDEST SWAP6 POP POP PUSH1 0x80 PUSH2 0x3B4 DUP12 DUP3 DUP13 ADD PUSH2 0x32C JUMP JUMPDEST SWAP5 POP POP PUSH1 0xA0 PUSH2 0x3C5 DUP12 DUP3 DUP13 ADD PUSH2 0x32C JUMP JUMPDEST SWAP4 POP POP PUSH1 0xC0 PUSH2 0x3D6 DUP12 DUP3 DUP13 ADD PUSH2 0x32C JUMP JUMPDEST SWAP3 POP POP PUSH1 0xE0 PUSH2 0x3E7 DUP12 DUP3 DUP13 ADD PUSH2 0x2BE JUMP JUMPDEST SWAP2 POP POP SWAP3 SWAP6 SWAP9 POP SWAP3 SWAP6 SWAP9 SWAP1 SWAP4 SWAP7 POP JUMP JUMPDEST PUSH2 0x400 DUP2 PUSH2 0x30B JUMP JUMPDEST DUP3 MSTORE POP POP JUMP JUMPDEST PUSH1 0x0 PUSH1 0x60 DUP3 ADD SWAP1 POP PUSH2 0x41B PUSH1 0x0 DUP4 ADD DUP7 PUSH2 0x3F7 JUMP JUMPDEST PUSH2 0x428 PUSH1 0x20 DUP4 ADD DUP6 PUSH2 0x3F7 JUMP JUMPDEST PUSH2 0x435 PUSH1 0x40 DUP4 ADD DUP5 PUSH2 0x3F7 JUMP JUMPDEST SWAP5 SWAP4 POP POP POP POP JUMP JUMPDEST PUSH1 0x0 PUSH1 0x20 DUP3 ADD SWAP1 POP PUSH2 0x452 PUSH1 0x0 DUP4 ADD DUP5 PUSH2 0x3F7 JUMP JUMPDEST SWAP3 SWAP2 POP POP JUMP JUMPDEST PUSH32 0x4E487B7100000000000000000000000000000000000000000000000000000000 PUSH1 0x0 MSTORE PUSH1 0x11 PUSH1 0x4 MSTORE PUSH1 0x24 PUSH1 0x0 REVERT JUMPDEST PUSH1 0x0 PUSH2 0x492 DUP3 PUSH2 0x30B JUMP JUMPDEST SWAP2 POP PUSH2 0x49D DUP4 PUSH2 0x30B JUMP JUMPDEST SWAP3 POP DUP3 DUP3 ADD SWAP1 POP DUP1 DUP3 GT ISZERO PUSH2 0x4B5 JUMPI PUSH2 0x4B4 PUSH2 0x458 JUMP JUMPDEST JUMPDEST SWAP3 SWAP2 POP POP JUMP JUMPDEST PUSH2 0x4C4 DUP2 PUSH2 0x2D3 JUMP JUMPDEST DUP3 MSTORE POP POP JUMP JUMPDEST PUSH1 0x0 PUSH2 0x120 DUP3 ADD SWAP1 POP PUSH2 0x4E0 PUSH1 0x0 DUP4 ADD DUP13 PUSH2 0x278 JUMP JUMPDEST PUSH2 0x4ED PUSH1 0x20 DUP4 ADD DUP12 PUSH2 0x278 JUMP JUMPDEST PUSH2 0x4FA PUSH1 0x40 DUP4 ADD DUP11 PUSH2 0x4BB JUMP JUMPDEST PUSH2 0x507 PUSH1 0x60 DUP4 ADD DUP10 PUSH2 0x3F7 JUMP JUMPDEST PUSH2 0x514 PUSH1 0x80 DUP4 ADD DUP9 PUSH2 0x3F7 JUMP JUMPDEST PUSH2 0x521 PUSH1 0xA0 DUP4 ADD DUP8 PUSH2 0x3F7 JUMP JUMPDEST PUSH2 0x52E PUSH1 0xC0 DUP4 ADD DUP7 PUSH2 0x3F7 JUMP JUMPDEST PUSH2 0x53B PUSH1 0xE0 DUP4 ADD DUP6 PUSH2 0x278 JUMP JUMPDEST PUSH2 0x549 PUSH2 0x100 DUP4 ADD DUP5 PUSH2 0x3F7 JUMP JUMPDEST SWAP11 SWAP10 POP POP POP POP POP POP POP POP POP POP JUMP JUMPDEST PUSH1 0x0 DUP2 MLOAD SWAP1 POP PUSH2 0x566 DUP2 PUSH2 0x315 JUMP JUMPDEST SWAP3 SWAP2 POP POP JUMP JUMPDEST PUSH1 0x0 DUP1 PUSH1 0x0 PUSH1 0x60 DUP5 DUP7 SUB SLT ISZERO PUSH2 0x585 JUMPI PUSH2 0x584 PUSH2 0x2A2 JUMP JUMPDEST JUMPDEST PUSH1 0x0 PUSH2 0x593 DUP7 DUP3 DUP8 ADD PUSH2 0x557 JUMP JUMPDEST SWAP4 POP POP PUSH1 0x20 PUSH2 0x5A4 DUP7 DUP3 DUP8 ADD PUSH2 0x557 JUMP JUMPDEST SWAP3 POP POP PUSH1 0x40 PUSH2 0x5B5 DUP7 DUP3 DUP8 ADD PUSH2 0x557 JUMP JUMPDEST SWAP2 POP POP SWAP3 POP SWAP3 POP SWAP3 JUMP JUMPDEST PUSH1 0x0 PUSH2 0x5CA DUP3 PUSH2 0x30B JUMP JUMPDEST SWAP2 POP PUSH2 0x5D5 DUP4 PUSH2 0x30B JUMP JUMPDEST SWAP3 POP DUP3 DUP3 MUL PUSH2 0x5E3 DUP2 PUSH2 0x30B JUMP JUMPDEST SWAP2 POP DUP3 DUP3 DIV DUP5 EQ DUP4 ISZERO OR PUSH2 0x5FA JUMPI PUSH2 0x5F9 PUSH2 0x458 JUMP JUMPDEST JUMPDEST POP SWAP3 SWAP2 POP POP JUMP JUMPDEST PUSH32 0x4E487B7100000000000000000000000000000000000000000000000000000000 PUSH1 0x0 MSTORE PUSH1 0x12 PUSH1 0x4 MSTORE PUSH1 0x24 PUSH1 0x0 REVERT JUMPDEST PUSH1 0x0 PUSH2 0x63B DUP3 PUSH2 0x30B JUMP JUMPDEST SWAP2 POP PUSH2 0x646 DUP4 PUSH2 0x30B JUMP JUMPDEST SWAP3 POP DUP3 PUSH2 0x656 JUMPI PUSH2 0x655 PUSH2 0x601 JUMP JUMPDEST JUMPDEST DUP3 DUP3 DIV SWAP1 POP SWAP3 SWAP2 POP POP JUMP INVALID LOG2 PUSH5 0x6970667358 0x22 SLT KECCAK256 DUP6 SWAP4 0xD8 CALLVALUE NOT SSTORE CODECOPY PUSH6 0x5F7A96AD6EBA EQ 0xE0 DUP1 0xAB MSIZE PUSH26 0xF1F8E8BAB53885E5D66FB73964736F6C63430008140033000000 "},"methodIdentifiers":{"addLiquidity(address,address,bool,uint256,uint256,uint256,uint256,address)":"790ba7b5","creator()":"02d05d3f","router()":"f887ea40","skimFeeBps()":"f37eb724"}}}}}