{
  "_format": "hh-sol-artifact-1",
  "contractName": "Bootstrapper",
  "sourceName": "contracts/Bootstrapper.sol",
  "abi": [
    {
      "inputs": [
        {
          "internalType": "address",
          "name": "router_",
          "type": "address"
        },
        {
          "internalType": "address",
          "name": "creator_",
          "type": "address"
        },
        {
          "internalType": "uint256",
          "name": "skimFeeBps_",
          "type": "uint256"
        }
      ],
      "stateMutability": "nonpayable",
      "type": "constructor"
    },
    {
      "anonymous": false,
      "inputs": [
        {
          "indexed": false,
          "internalType": "uint256",
          "name": "oldBps",
          "type": "uint256"
        },
        {
          "indexed": false,
          "internalType": "uint256",
          "name": "newBps",
          "type": "uint256"
        }
      ],
      "name": "SkimFeeUpdated",
      "type": "event"
    },
    {
      "anonymous": false,
      "inputs": [
        {
          "indexed": true,
          "internalType": "address",
          "name": "token",
          "type": "address"
        },
        {
          "indexed": true,
          "internalType": "address",
          "name": "to",
          "type": "address"
        },
        {
          "indexed": false,
          "internalType": "uint256",
          "name": "amount",
          "type": "uint256"
        }
      ],
      "name": "Withdraw",
      "type": "event"
    },
    {
      "inputs": [
        {
          "internalType": "address",
          "name": "tokenA",
          "type": "address"
        },
        {
          "internalType": "address",
          "name": "tokenB",
          "type": "address"
        },
        {
          "internalType": "bool",
          "name": "stable",
          "type": "bool"
        },
        {
          "internalType": "uint256",
          "name": "amountADesired",
          "type": "uint256"
        },
        {
          "internalType": "uint256",
          "name": "amountBDesired",
          "type": "uint256"
        },
        {
          "internalType": "uint256",
          "name": "amountAMin",
          "type": "uint256"
        },
        {
          "internalType": "uint256",
          "name": "amountBMin",
          "type": "uint256"
        },
        {
          "internalType": "address",
          "name": "to",
          "type": "address"
        }
      ],
      "name": "addLiquidity",
      "outputs": [
        {
          "internalType": "uint256",
          "name": "amountA",
          "type": "uint256"
        },
        {
          "internalType": "uint256",
          "name": "amountB",
          "type": "uint256"
        },
        {
          "internalType": "uint256",
          "name": "liquidity",
          "type": "uint256"
        }
      ],
      "stateMutability": "nonpayable",
      "type": "function"
    },
    {
      "inputs": [],
      "name": "creator",
      "outputs": [
        {
          "internalType": "address",
          "name": "",
          "type": "address"
        }
      ],
      "stateMutability": "view",
      "type": "function"
    },
    {
      "inputs": [
        {
          "internalType": "address",
          "name": "token",
          "type": "address"
        }
      ],
      "name": "emergencyWithdraw",
      "outputs": [],
      "stateMutability": "nonpayable",
      "type": "function"
    },
    {
      "inputs": [],
      "name": "router",
      "outputs": [
        {
          "internalType": "address",
          "name": "",
          "type": "address"
        }
      ],
      "stateMutability": "view",
      "type": "function"
    },
    {
      "inputs": [
        {
          "internalType": "uint256",
          "name": "newBps",
          "type": "uint256"
        }
      ],
      "name": "setSkimFeeBps",
      "outputs": [],
      "stateMutability": "nonpayable",
      "type": "function"
    },
    {
      "inputs": [],
      "name": "skimFeeBps",
      "outputs": [
        {
          "internalType": "uint256",
          "name": "",
          "type": "uint256"
        }
      ],
      "stateMutability": "view",
      "type": "function"
    },
    {
      "inputs": [
        {
          "internalType": "address",
          "name": "token",
          "type": "address"
        },
        {
          "internalType": "uint256",
          "name": "amount",
          "type": "uint256"
        },
        {
          "internalType": "address",
          "name": "to",
          "type": "address"
        }
      ],
      "name": "withdrawERC20",
      "outputs": [],
      "stateMutability": "nonpayable",
      "type": "function"
    }
  ],
  "bytecode": "0x60806040523480156200001157600080fd5b50604051620019193803806200191983398181016040528101906200003791906200016d565b826000806101000a81548173ffffffffffffffffffffffffffffffffffffffff021916908373ffffffffffffffffffffffffffffffffffffffff16021790555081600160006101000a81548173ffffffffffffffffffffffffffffffffffffffff021916908373ffffffffffffffffffffffffffffffffffffffff16021790555080600281905550505050620001c9565b600080fd5b600073ffffffffffffffffffffffffffffffffffffffff82169050919050565b6000620000fa82620000cd565b9050919050565b6200010c81620000ed565b81146200011857600080fd5b50565b6000815190506200012c8162000101565b92915050565b6000819050919050565b620001478162000132565b81146200015357600080fd5b50565b60008151905062000167816200013c565b92915050565b600080600060608486031215620001895762000188620000c8565b5b600062000199868287016200011b565b9350506020620001ac868287016200011b565b9250506040620001bf8682870162000156565b9150509250925092565b61174080620001d96000396000f3fe608060405234801561001057600080fd5b506004361061007d5760003560e01c80636ff1c9bc1161005b5780636ff1c9bc146100d8578063790ba7b5146100f4578063f37eb72414610126578063f887ea40146101445761007d565b806302d05d3f146100825780634767a4a9146100a05780635fc3ea0b146100bc575b600080fd5b61008a610162565b6040516100979190610d7a565b60405180910390f35b6100ba60048036038101906100b59190610dd0565b610188565b005b6100d660048036038101906100d19190610e29565b610263565b005b6100f260048036038101906100ed9190610e7c565b61041a565b005b61010e60048036038101906101099190610ee1565b61069c565b60405161011d93929190610fa6565b60405180910390f35b61012e610d0f565b60405161013b9190610fdd565b60405180910390f35b61014c610d15565b6040516101599190610d7a565b60405180910390f35b600160009054906101000a900473ffffffffffffffffffffffffffffffffffffffff1681565b600160009054906101000a900473ffffffffffffffffffffffffffffffffffffffff1673ffffffffffffffffffffffffffffffffffffffff163373ffffffffffffffffffffffffffffffffffffffff1614610218576040517f08c379a000000000000000000000000000000000000000000000000000000000815260040161020f90611055565b60405180910390fd5b60006002549050816002819055507fddaa03cd219aab11010be225d3017761c31fec2c555a7add178c4f482d86ee1b8183604051610257929190611075565b60405180910390a15050565b600160009054906101000a900473ffffffffffffffffffffffffffffffffffffffff1673ffffffffffffffffffffffffffffffffffffffff163373ffffffffffffffffffffffffffffffffffffffff16146102f3576040517f08c379a00000000000000000000000000000000000000000000000000000000081526004016102ea90611055565b60405180910390fd5b8273ffffffffffffffffffffffffffffffffffffffff1663a9059cbb82846040518363ffffffff1660e01b815260040161032e92919061109e565b6020604051808303816000875af115801561034d573d6000803e3d6000fd5b505050506040513d601f19601f8201168201806040525081019061037191906110dc565b6103b0576040517f08c379a00000000000000000000000000000000000000000000000000000000081526004016103a790611155565b60405180910390fd5b8073ffffffffffffffffffffffffffffffffffffffff168373ffffffffffffffffffffffffffffffffffffffff167f9b1bfa7fa9ee420a16e124f794c35ac9f90472acc99140eb2f6447c714cad8eb8460405161040d9190610fdd565b60405180910390a3505050565b600160009054906101000a900473ffffffffffffffffffffffffffffffffffffffff1673ffffffffffffffffffffffffffffffffffffffff163373ffffffffffffffffffffffffffffffffffffffff16146104aa576040517f08c379a00000000000000000000000000000000000000000000000000000000081526004016104a190611055565b60405180910390fd5b60008173ffffffffffffffffffffffffffffffffffffffff166370a08231306040518263ffffffff1660e01b81526004016104e59190610d7a565b602060405180830381865afa158015610502573d6000803e3d6000fd5b505050506040513d601f19601f82011682018060405250810190610526919061118a565b90506000811115610698578173ffffffffffffffffffffffffffffffffffffffff1663a9059cbb600160009054906101000a900473ffffffffffffffffffffffffffffffffffffffff16836040518363ffffffff1660e01b815260040161058e92919061109e565b6020604051808303816000875af11580156105ad573d6000803e3d6000fd5b505050506040513d601f19601f820116820180604052508101906105d191906110dc565b610610576040517f08c379a000000000000000000000000000000000000000000000000000000000815260040161060790611203565b60405180910390fd5b600160009054906101000a900473ffffffffffffffffffffffffffffffffffffffff1673ffffffffffffffffffffffffffffffffffffffff168273ffffffffffffffffffffffffffffffffffffffff167f9b1bfa7fa9ee420a16e124f794c35ac9f90472acc99140eb2f6447c714cad8eb8360405161068f9190610fdd565b60405180910390a35b5050565b600080600080881115610769578a73ffffffffffffffffffffffffffffffffffffffff166323b872dd33308b6040518463ffffffff1660e01b81526004016106e693929190611223565b6020604051808303816000875af1158015610705573d6000803e3d6000fd5b505050506040513d601f19601f8201168201806040525081019061072991906110dc565b610768576040517f08c379a000000000000000000000000000000000000000000000000000000000815260040161075f906112a6565b60405180910390fd5b5b6000871115610832578973ffffffffffffffffffffffffffffffffffffffff166323b872dd33308a6040518463ffffffff1660e01b81526004016107af93929190611223565b6020604051808303816000875af11580156107ce573d6000803e3d6000fd5b505050506040513d601f19601f820116820180604052508101906107f291906110dc565b610831576040517f08c379a000000000000000000000000000000000000000000000000000000000815260040161082890611312565b60405180910390fd5b5b60006127106002548a6108459190611361565b61084f91906113d2565b9050600081111561093a578b73ffffffffffffffffffffffffffffffffffffffff1663a9059cbb600160009054906101000a900473ffffffffffffffffffffffffffffffffffffffff16836040518363ffffffff1660e01b81526004016108b792919061109e565b6020604051808303816000875af11580156108d6573d6000803e3d6000fd5b505050506040513d601f19601f820116820180604052508101906108fa91906110dc565b610939576040517f08c379a00000000000000000000000000000000000000000000000000000000081526004016109309061144f565b60405180910390fd5b5b60006127106002548a61094d9190611361565b61095791906113d2565b90506000811115610a42578b73ffffffffffffffffffffffffffffffffffffffff1663a9059cbb600160009054906101000a900473ffffffffffffffffffffffffffffffffffffffff16836040518363ffffffff1660e01b81526004016109bf92919061109e565b6020604051808303816000875af11580156109de573d6000803e3d6000fd5b505050506040513d601f19601f82011682018060405250810190610a0291906110dc565b610a41576040517f08c379a0000000000000000000000000000000000000000000000000000000008152600401610a38906114bb565b60405180910390fd5b5b818a1115610b33578c73ffffffffffffffffffffffffffffffffffffffff1663095ea7b360008054906101000a900473ffffffffffffffffffffffffffffffffffffffff16848d610a9391906114db565b6040518363ffffffff1660e01b8152600401610ab092919061109e565b6020604051808303816000875af1158015610acf573d6000803e3d6000fd5b505050506040513d601f19601f82011682018060405250810190610af391906110dc565b610b32576040517f08c379a0000000000000000000000000000000000000000000000000000000008152600401610b299061155b565b60405180910390fd5b5b80891115610c24578b73ffffffffffffffffffffffffffffffffffffffff1663095ea7b360008054906101000a900473ffffffffffffffffffffffffffffffffffffffff16838c610b8491906114db565b6040518363ffffffff1660e01b8152600401610ba192919061109e565b6020604051808303816000875af1158015610bc0573d6000803e3d6000fd5b505050506040513d601f19601f82011682018060405250810190610be491906110dc565b610c23576040517f08c379a0000000000000000000000000000000000000000000000000000000008152600401610c1a906115c7565b60405180910390fd5b5b60008054906101000a900473ffffffffffffffffffffffffffffffffffffffff1673ffffffffffffffffffffffffffffffffffffffff16635a47ddc38e8e8e868f610c6f91906114db565b868f610c7b91906114db565b8e8e8e6104b042610c8c91906115e7565b6040518a63ffffffff1660e01b8152600401610cb09998979695949392919061162a565b6060604051808303816000875af1158015610ccf573d6000803e3d6000fd5b505050506040513d601f19601f82011682018060405250810190610cf391906116b7565b8095508196508297505050505050985098509895505050505050565b60025481565b60008054906101000a900473ffffffffffffffffffffffffffffffffffffffff1681565b600073ffffffffffffffffffffffffffffffffffffffff82169050919050565b6000610d6482610d39565b9050919050565b610d7481610d59565b82525050565b6000602082019050610d8f6000830184610d6b565b92915050565b600080fd5b6000819050919050565b610dad81610d9a565b8114610db857600080fd5b50565b600081359050610dca81610da4565b92915050565b600060208284031215610de657610de5610d95565b5b6000610df484828501610dbb565b91505092915050565b610e0681610d59565b8114610e1157600080fd5b50565b600081359050610e2381610dfd565b92915050565b600080600060608486031215610e4257610e41610d95565b5b6000610e5086828701610e14565b9350506020610e6186828701610dbb565b9250506040610e7286828701610e14565b9150509250925092565b600060208284031215610e9257610e91610d95565b5b6000610ea084828501610e14565b91505092915050565b60008115159050919050565b610ebe81610ea9565b8114610ec957600080fd5b50565b600081359050610edb81610eb5565b92915050565b600080600080600080600080610100898b031215610f0257610f01610d95565b5b6000610f108b828c01610e14565b9850506020610f218b828c01610e14565b9750506040610f328b828c01610ecc565b9650506060610f438b828c01610dbb565b9550506080610f548b828c01610dbb565b94505060a0610f658b828c01610dbb565b93505060c0610f768b828c01610dbb565b92505060e0610f878b828c01610e14565b9150509295985092959890939650565b610fa081610d9a565b82525050565b6000606082019050610fbb6000830186610f97565b610fc86020830185610f97565b610fd56040830184610f97565b949350505050565b6000602082019050610ff26000830184610f97565b92915050565b600082825260208201905092915050565b7f6f6e6c792063726561746f720000000000000000000000000000000000000000600082015250565b600061103f600c83610ff8565b915061104a82611009565b602082019050919050565b6000602082019050818103600083015261106e81611032565b9050919050565b600060408201905061108a6000830185610f97565b6110976020830184610f97565b9392505050565b60006040820190506110b36000830185610d6b565b6110c06020830184610f97565b9392505050565b6000815190506110d681610eb5565b92915050565b6000602082840312156110f2576110f1610d95565b5b6000611100848285016110c7565b91505092915050565b7f7769746864726177206661696c65640000000000000000000000000000000000600082015250565b600061113f600f83610ff8565b915061114a82611109565b602082019050919050565b6000602082019050818103600083015261116e81611132565b9050919050565b60008151905061118481610da4565b92915050565b6000602082840312156111a05761119f610d95565b5b60006111ae84828501611175565b91505092915050565b7f656d657267656e6379207769746864726177206661696c656400000000000000600082015250565b60006111ed601983610ff8565b91506111f8826111b7565b602082019050919050565b6000602082019050818103600083015261121c816111e0565b9050919050565b60006060820190506112386000830186610d6b565b6112456020830185610d6b565b6112526040830184610f97565b949350505050565b7f7472616e7366657241206661696c656400000000000000000000000000000000600082015250565b6000611290601083610ff8565b915061129b8261125a565b602082019050919050565b600060208201905081810360008301526112bf81611283565b9050919050565b7f7472616e7366657242206661696c656400000000000000000000000000000000600082015250565b60006112fc601083610ff8565b9150611307826112c6565b602082019050919050565b6000602082019050818103600083015261132b816112ef565b9050919050565b7f4e487b7100000000000000000000000000000000000000000000000000000000600052601160045260246000fd5b600061136c82610d9a565b915061137783610d9a565b925082820261138581610d9a565b9150828204841483151761139c5761139b611332565b5b5092915050565b7f4e487b7100000000000000000000000000000000000000000000000000000000600052601260045260246000fd5b60006113dd82610d9a565b91506113e883610d9a565b9250826113f8576113f76113a3565b5b828204905092915050565b7f736b696d41207472616e73666572206661696c65640000000000000000000000600082015250565b6000611439601583610ff8565b915061144482611403565b602082019050919050565b600060208201905081810360008301526114688161142c565b9050919050565b7f736b696d42207472616e73666572206661696c65640000000000000000000000600082015250565b60006114a5601583610ff8565b91506114b08261146f565b602082019050919050565b600060208201905081810360008301526114d481611498565b9050919050565b60006114e682610d9a565b91506114f183610d9a565b925082820390508181111561150957611508611332565b5b92915050565b7f617070726f766541206661696c65640000000000000000000000000000000000600082015250565b6000611545600f83610ff8565b91506115508261150f565b602082019050919050565b6000602082019050818103600083015261157481611538565b9050919050565b7f617070726f766542206661696c65640000000000000000000000000000000000600082015250565b60006115b1600f83610ff8565b91506115bc8261157b565b602082019050919050565b600060208201905081810360008301526115e0816115a4565b9050919050565b60006115f282610d9a565b91506115fd83610d9a565b925082820190508082111561161557611614611332565b5b92915050565b61162481610ea9565b82525050565b600061012082019050611640600083018c610d6b565b61164d602083018b610d6b565b61165a604083018a61161b565b6116676060830189610f97565b6116746080830188610f97565b61168160a0830187610f97565b61168e60c0830186610f97565b61169b60e0830185610d6b565b6116a9610100830184610f97565b9a9950505050505050505050565b6000806000606084860312156116d0576116cf610d95565b5b60006116de86828701611175565b93505060206116ef86828701611175565b925050604061170086828701611175565b915050925092509256fea2646970667358221220886291a10cb78b34a491a2500983248c14563fc6eb8257ff1d19a3b1c7bd758b64736f6c63430008140033",
  "linkReferences": {},
  "deployedLinkReferences": {}
}