{
  "_format": "hh-sol-artifact-1",
  "contractName": "StableForgeFactory",
  "sourceName": "contracts/StableForgeFactory.sol",
  "abi": [
    {
      "inputs": [
        {
          "internalType": "address",
          "name": "aavePool_",
          "type": "address"
        },
        {
          "internalType": "address",
          "name": "aerodromeRouter_",
          "type": "address"
        },
        {
          "internalType": "address",
          "name": "aerodromeFactory_",
          "type": "address"
        },
        {
          "internalType": "address",
          "name": "usdc_",
          "type": "address"
        },
        {
          "internalType": "address",
          "name": "creator_",
          "type": "address"
        }
      ],
      "stateMutability": "nonpayable",
      "type": "constructor"
    },
    {
      "anonymous": false,
      "inputs": [
        {
          "indexed": false,
          "internalType": "address",
          "name": "bootstrapper",
          "type": "address"
        }
      ],
      "name": "BootstrapperDeployed",
      "type": "event"
    },
    {
      "anonymous": false,
      "inputs": [
        {
          "indexed": false,
          "internalType": "address",
          "name": "token",
          "type": "address"
        },
        {
          "indexed": false,
          "internalType": "string",
          "name": "name",
          "type": "string"
        },
        {
          "indexed": false,
          "internalType": "string",
          "name": "symbol",
          "type": "string"
        },
        {
          "indexed": false,
          "internalType": "uint256",
          "name": "supply",
          "type": "uint256"
        }
      ],
      "name": "TokenDeployed",
      "type": "event"
    },
    {
      "inputs": [],
      "name": "aavePool",
      "outputs": [
        {
          "internalType": "address",
          "name": "",
          "type": "address"
        }
      ],
      "stateMutability": "view",
      "type": "function"
    },
    {
      "inputs": [],
      "name": "aerodromeFactory",
      "outputs": [
        {
          "internalType": "address",
          "name": "",
          "type": "address"
        }
      ],
      "stateMutability": "view",
      "type": "function"
    },
    {
      "inputs": [],
      "name": "aerodromeRouter",
      "outputs": [
        {
          "internalType": "address",
          "name": "",
          "type": "address"
        }
      ],
      "stateMutability": "view",
      "type": "function"
    },
    {
      "inputs": [],
      "name": "creator",
      "outputs": [
        {
          "internalType": "address",
          "name": "",
          "type": "address"
        }
      ],
      "stateMutability": "view",
      "type": "function"
    },
    {
      "inputs": [],
      "name": "deployBootstrapper",
      "outputs": [
        {
          "internalType": "address",
          "name": "",
          "type": "address"
        }
      ],
      "stateMutability": "nonpayable",
      "type": "function"
    },
    {
      "inputs": [
        {
          "internalType": "string",
          "name": "name_",
          "type": "string"
        },
        {
          "internalType": "string",
          "name": "symbol_",
          "type": "string"
        },
        {
          "internalType": "uint256",
          "name": "supply_",
          "type": "uint256"
        }
      ],
      "name": "deployToken",
      "outputs": [
        {
          "internalType": "address",
          "name": "",
          "type": "address"
        }
      ],
      "stateMutability": "nonpayable",
      "type": "function"
    },
    {
      "inputs": [],
      "name": "usdc",
      "outputs": [
        {
          "internalType": "address",
          "name": "",
          "type": "address"
        }
      ],
      "stateMutability": "view",
      "type": "function"
    }
  ],
  "bytecode": "0x608060405234801561001057600080fd5b50604051620042a0380380620042a0833981810160405281019061003491906101e5565b846000806101000a81548173ffffffffffffffffffffffffffffffffffffffff021916908373ffffffffffffffffffffffffffffffffffffffff16021790555083600160006101000a81548173ffffffffffffffffffffffffffffffffffffffff021916908373ffffffffffffffffffffffffffffffffffffffff16021790555082600260006101000a81548173ffffffffffffffffffffffffffffffffffffffff021916908373ffffffffffffffffffffffffffffffffffffffff16021790555081600360006101000a81548173ffffffffffffffffffffffffffffffffffffffff021916908373ffffffffffffffffffffffffffffffffffffffff16021790555080600460006101000a81548173ffffffffffffffffffffffffffffffffffffffff021916908373ffffffffffffffffffffffffffffffffffffffff1602179055505050505050610260565b600080fd5b600073ffffffffffffffffffffffffffffffffffffffff82169050919050565b60006101b282610187565b9050919050565b6101c2816101a7565b81146101cd57600080fd5b50565b6000815190506101df816101b9565b92915050565b600080600080600060a0868803121561020157610200610182565b5b600061020f888289016101d0565b9550506020610220888289016101d0565b9450506040610231888289016101d0565b9350506060610242888289016101d0565b9250506080610253888289016101d0565b9150509295509295909350565b61403080620002706000396000f3fe60806040523480156200001157600080fd5b5060043610620000885760003560e01c806385df000d116200006357806385df000d1462000107578063a03e4bc31462000129578063c45acd23146200014b578063e18e3a68146200016d5762000088565b806302d05d3f146200008d5780633a93babb14620000af5780633e413bee14620000e5575b600080fd5b620000976200018f565b604051620000a6919062000429565b60405180910390f35b620000cd6004803603810190620000c79190620005f7565b620001b5565b604051620000dc919062000429565b60405180910390f35b620000ef6200026b565b604051620000fe919062000429565b60405180910390f35b6200011162000291565b60405162000120919062000429565b60405180910390f35b6200013362000358565b60405162000142919062000429565b60405180910390f35b620001556200037c565b60405162000164919062000429565b60405180910390f35b62000177620003a2565b60405162000186919062000429565b60405180910390f35b600460009054906101000a900473ffffffffffffffffffffffffffffffffffffffff1681565b6000808484600460009054906101000a900473ffffffffffffffffffffffffffffffffffffffff168560c86032604051620001f090620003c8565b6200020196959493929190620007bb565b604051809103906000f0801580156200021e573d6000803e3d6000fd5b5090507f965d14e60858869a5d867a6a8bc4d86b62d1af8fb0ec2e51ce43d009a073958b8186868660405162000258949392919062000836565b60405180910390a1809150509392505050565b600360009054906101000a900473ffffffffffffffffffffffffffffffffffffffff1681565b600080600160009054906101000a900473ffffffffffffffffffffffffffffffffffffffff16600460009054906101000a900473ffffffffffffffffffffffffffffffffffffffff166032604051620002ea90620003d6565b620002f89392919062000891565b604051809103906000f08015801562000315573d6000803e3d6000fd5b5090507fd2d4bdecab447b5474fe7b3b8fdd1c44b4210889394e7667850129a79b9494c78160405162000349919062000429565b60405180910390a18091505090565b60008054906101000a900473ffffffffffffffffffffffffffffffffffffffff1681565b600260009054906101000a900473ffffffffffffffffffffffffffffffffffffffff1681565b600160009054906101000a900473ffffffffffffffffffffffffffffffffffffffff1681565b611e1380620008cf83390190565b61191980620026e283390190565b600073ffffffffffffffffffffffffffffffffffffffff82169050919050565b60006200041182620003e4565b9050919050565b620004238162000404565b82525050565b600060208201905062000440600083018462000418565b92915050565b6000604051905090565b600080fd5b600080fd5b600080fd5b600080fd5b6000601f19601f8301169050919050565b7f4e487b7100000000000000000000000000000000000000000000000000000000600052604160045260246000fd5b620004af8262000464565b810181811067ffffffffffffffff82111715620004d157620004d062000475565b5b80604052505050565b6000620004e662000446565b9050620004f48282620004a4565b919050565b600067ffffffffffffffff82111562000517576200051662000475565b5b620005228262000464565b9050602081019050919050565b82818337600083830152505050565b6000620005556200054f84620004f9565b620004da565b9050828152602081018484840111156200057457620005736200045f565b5b620005818482856200052f565b509392505050565b600082601f830112620005a157620005a06200045a565b5b8135620005b38482602086016200053e565b91505092915050565b6000819050919050565b620005d181620005bc565b8114620005dd57600080fd5b50565b600081359050620005f181620005c6565b92915050565b60008060006060848603121562000613576200061262000450565b5b600084013567ffffffffffffffff81111562000634576200063362000455565b5b620006428682870162000589565b935050602084013567ffffffffffffffff81111562000666576200066562000455565b5b620006748682870162000589565b92505060406200068786828701620005e0565b9150509250925092565b600081519050919050565b600082825260208201905092915050565b60005b83811015620006cd578082015181840152602081019050620006b0565b60008484015250505050565b6000620006e68262000691565b620006f281856200069c565b935062000704818560208601620006ad565b6200070f8162000464565b840191505092915050565b6200072581620005bc565b82525050565b6000819050919050565b6000819050919050565b6000620007606200075a62000754846200072b565b62000735565b620005bc565b9050919050565b62000772816200073f565b82525050565b6000819050919050565b6000620007a36200079d620007978462000778565b62000735565b620005bc565b9050919050565b620007b58162000782565b82525050565b600060c0820190508181036000830152620007d78189620006d9565b90508181036020830152620007ed8188620006d9565b9050620007fe604083018762000418565b6200080d60608301866200071a565b6200081c608083018562000767565b6200082b60a0830184620007aa565b979650505050505050565b60006080820190506200084d600083018762000418565b8181036020830152620008618186620006d9565b90508181036040830152620008778185620006d9565b90506200088860608301846200071a565b95945050505050565b6000606082019050620008a8600083018662000418565b620008b7602083018562000418565b620008c66040830184620007aa565b94935050505056fe60806040523480156200001157600080fd5b5060405162001e1338038062001e138339818101604052810190620000379190620004d3565b858581600390816200004a9190620007ee565b5080600490816200005c9190620007ee565b50505083600560006101000a81548173ffffffffffffffffffffffffffffffffffffffff021916908373ffffffffffffffffffffffffffffffffffffffff160217905550816006819055508060078190555060006127108385620000c1919062000904565b620000cd91906200097e565b905060008185620000df9190620009b6565b90506000821115620000fe57620000fd86836200012960201b60201c565b5b60008111156200011b576200011a33826200012960201b60201c565b5b505050505050505062000add565b600073ffffffffffffffffffffffffffffffffffffffff168273ffffffffffffffffffffffffffffffffffffffff16036200019b576040517f08c379a0000000000000000000000000000000000000000000000000000000008152600401620001929062000a52565b60405180910390fd5b620001af600083836200029660201b60201c565b8060026000828254620001c3919062000a74565b92505081905550806000808473ffffffffffffffffffffffffffffffffffffffff1673ffffffffffffffffffffffffffffffffffffffff168152602001908152602001600020600082825401925050819055508173ffffffffffffffffffffffffffffffffffffffff16600073ffffffffffffffffffffffffffffffffffffffff167fddf252ad1be2c89b69c2b068fc378daa952ba7f163c4a11628f55a4df523b3ef8360405162000276919062000ac0565b60405180910390a362000292600083836200029b60201b60201c565b5050565b505050565b505050565b6000604051905090565b600080fd5b600080fd5b600080fd5b600080fd5b6000601f19601f8301169050919050565b7f4e487b7100000000000000000000000000000000000000000000000000000000600052604160045260246000fd5b6200030982620002be565b810181811067ffffffffffffffff821117156200032b576200032a620002cf565b5b80604052505050565b600062000340620002a0565b90506200034e8282620002fe565b919050565b600067ffffffffffffffff821115620003715762000370620002cf565b5b6200037c82620002be565b9050602081019050919050565b60005b83811015620003a95780820151818401526020810190506200038c565b60008484015250505050565b6000620003cc620003c68462000353565b62000334565b905082815260208101848484011115620003eb57620003ea620002b9565b5b620003f884828562000389565b509392505050565b600082601f830112620004185762000417620002b4565b5b81516200042a848260208601620003b5565b91505092915050565b600073ffffffffffffffffffffffffffffffffffffffff82169050919050565b6000620004608262000433565b9050919050565b620004728162000453565b81146200047e57600080fd5b50565b600081519050620004928162000467565b92915050565b6000819050919050565b620004ad8162000498565b8114620004b957600080fd5b50565b600081519050620004cd81620004a2565b92915050565b60008060008060008060c08789031215620004f357620004f2620002aa565b5b600087015167ffffffffffffffff811115620005145762000513620002af565b5b6200052289828a0162000400565b965050602087015167ffffffffffffffff811115620005465762000545620002af565b5b6200055489828a0162000400565b95505060406200056789828a0162000481565b94505060606200057a89828a01620004bc565b93505060806200058d89828a01620004bc565b92505060a0620005a089828a01620004bc565b9150509295509295509295565b600081519050919050565b7f4e487b7100000000000000000000000000000000000000000000000000000000600052602260045260246000fd5b600060028204905060018216806200060057607f821691505b602082108103620006165762000615620005b8565b5b50919050565b60008190508160005260206000209050919050565b60006020601f8301049050919050565b600082821b905092915050565b600060088302620006807fffffffffffffffffffffffffffffffffffffffffffffffffffffffffffffffff8262000641565b6200068c868362000641565b95508019841693508086168417925050509392505050565b6000819050919050565b6000620006cf620006c9620006c38462000498565b620006a4565b62000498565b9050919050565b6000819050919050565b620006eb83620006ae565b62000703620006fa82620006d6565b8484546200064e565b825550505050565b600090565b6200071a6200070b565b62000727818484620006e0565b505050565b5b818110156200074f576200074360008262000710565b6001810190506200072d565b5050565b601f8211156200079e5762000768816200061c565b620007738462000631565b8101602085101562000783578190505b6200079b620007928562000631565b8301826200072c565b50505b505050565b600082821c905092915050565b6000620007c360001984600802620007a3565b1980831691505092915050565b6000620007de8383620007b0565b9150826002028217905092915050565b620007f982620005ad565b67ffffffffffffffff811115620008155762000814620002cf565b5b620008218254620005e7565b6200082e82828562000753565b600060209050601f83116001811462000866576000841562000851578287015190505b6200085d8582620007d0565b865550620008cd565b601f19841662000876866200061c565b60005b82811015620008a05784890151825560018201915060208501945060208101905062000879565b86831015620008c05784890151620008bc601f891682620007b0565b8355505b6001600288020188555050505b505050505050565b7f4e487b7100000000000000000000000000000000000000000000000000000000600052601160045260246000fd5b6000620009118262000498565b91506200091e8362000498565b92508282026200092e8162000498565b91508282048414831517620009485762000947620008d5565b5b5092915050565b7f4e487b7100000000000000000000000000000000000000000000000000000000600052601260045260246000fd5b60006200098b8262000498565b9150620009988362000498565b925082620009ab57620009aa6200094f565b5b828204905092915050565b6000620009c38262000498565b9150620009d08362000498565b9250828203905081811115620009eb57620009ea620008d5565b5b92915050565b600082825260208201905092915050565b7f45524332303a206d696e7420746f20746865207a65726f206164647265737300600082015250565b600062000a3a601f83620009f1565b915062000a478262000a02565b602082019050919050565b6000602082019050818103600083015262000a6d8162000a2b565b9050919050565b600062000a818262000498565b915062000a8e8362000498565b925082820190508082111562000aa95762000aa8620008d5565b5b92915050565b62000aba8162000498565b82525050565b600060208201905062000ad7600083018462000aaf565b92915050565b6113268062000aed6000396000f3fe608060405234801561001057600080fd5b50600436106100ea5760003560e01c806370a082311161008c578063a457c2d711610066578063a457c2d714610263578063a9059cbb14610293578063dd62ed3e146102c3578063f37eb724146102f3576100ea565b806370a08231146101f757806395d89b41146102275780639dfa9a8414610245576100ea565b806318160ddd116100c857806318160ddd1461015b57806323b872dd14610179578063313ce567146101a957806339509351146101c7576100ea565b806302d05d3f146100ef57806306fdde031461010d578063095ea7b31461012b575b600080fd5b6100f7610311565b6040516101049190610b8a565b60405180910390f35b610115610337565b6040516101229190610c35565b60405180910390f35b61014560048036038101906101409190610cbe565b6103c9565b6040516101529190610d19565b60405180910390f35b6101636103ec565b6040516101709190610d43565b60405180910390f35b610193600480360381019061018e9190610d5e565b6103f6565b6040516101a09190610d19565b60405180910390f35b6101b1610425565b6040516101be9190610dcd565b60405180910390f35b6101e160048036038101906101dc9190610cbe565b61042e565b6040516101ee9190610d19565b60405180910390f35b610211600480360381019061020c9190610de8565b610465565b60405161021e9190610d43565b60405180910390f35b61022f6104ad565b60405161023c9190610c35565b60405180910390f35b61024d61053f565b60405161025a9190610d43565b60405180910390f35b61027d60048036038101906102789190610cbe565b610545565b60405161028a9190610d19565b60405180910390f35b6102ad60048036038101906102a89190610cbe565b6105bc565b6040516102ba9190610d19565b60405180910390f35b6102dd60048036038101906102d89190610e15565b6105df565b6040516102ea9190610d43565b60405180910390f35b6102fb610666565b6040516103089190610d43565b60405180910390f35b600560009054906101000a900473ffffffffffffffffffffffffffffffffffffffff1681565b60606003805461034690610e84565b80601f016020809104026020016040519081016040528092919081815260200182805461037290610e84565b80156103bf5780601f10610394576101008083540402835291602001916103bf565b820191906000526020600020905b8154815290600101906020018083116103a257829003601f168201915b5050505050905090565b6000806103d461066c565b90506103e1818585610674565b600191505092915050565b6000600254905090565b60008061040161066c565b905061040e85828561083d565b6104198585856108c9565b60019150509392505050565b60006012905090565b60008061043961066c565b905061045a81858561044b85896105df565b6104559190610ee4565b610674565b600191505092915050565b60008060008373ffffffffffffffffffffffffffffffffffffffff1673ffffffffffffffffffffffffffffffffffffffff168152602001908152602001600020549050919050565b6060600480546104bc90610e84565b80601f01602080910402602001604051908101604052809291908181526020018280546104e890610e84565b80156105355780601f1061050a57610100808354040283529160200191610535565b820191906000526020600020905b81548152906001019060200180831161051857829003601f168201915b5050505050905090565b60065481565b60008061055061066c565b9050600061055e82866105df565b9050838110156105a3576040517f08c379a000000000000000000000000000000000000000000000000000000000815260040161059a90610f8a565b60405180910390fd5b6105b08286868403610674565b60019250505092915050565b6000806105c761066c565b90506105d48185856108c9565b600191505092915050565b6000600160008473ffffffffffffffffffffffffffffffffffffffff1673ffffffffffffffffffffffffffffffffffffffff16815260200190815260200160002060008373ffffffffffffffffffffffffffffffffffffffff1673ffffffffffffffffffffffffffffffffffffffff16815260200190815260200160002054905092915050565b60075481565b600033905090565b600073ffffffffffffffffffffffffffffffffffffffff168373ffffffffffffffffffffffffffffffffffffffff16036106e3576040517f08c379a00000000000000000000000000000000000000000000000000000000081526004016106da9061101c565b60405180910390fd5b600073ffffffffffffffffffffffffffffffffffffffff168273ffffffffffffffffffffffffffffffffffffffff1603610752576040517f08c379a0000000000000000000000000000000000000000000000000000000008152600401610749906110ae565b60405180910390fd5b80600160008573ffffffffffffffffffffffffffffffffffffffff1673ffffffffffffffffffffffffffffffffffffffff16815260200190815260200160002060008473ffffffffffffffffffffffffffffffffffffffff1673ffffffffffffffffffffffffffffffffffffffff168152602001908152602001600020819055508173ffffffffffffffffffffffffffffffffffffffff168373ffffffffffffffffffffffffffffffffffffffff167f8c5be1e5ebec7d5bd14f71427d1e84f3dd0314c0f7b2291e5b200ac8c7c3b925836040516108309190610d43565b60405180910390a3505050565b600061084984846105df565b90507fffffffffffffffffffffffffffffffffffffffffffffffffffffffffffffffff81146108c357818110156108b5576040517f08c379a00000000000000000000000000000000000000000000000000000000081526004016108ac9061111a565b60405180910390fd5b6108c28484848403610674565b5b50505050565b600073ffffffffffffffffffffffffffffffffffffffff168373ffffffffffffffffffffffffffffffffffffffff1603610938576040517f08c379a000000000000000000000000000000000000000000000000000000000815260040161092f906111ac565b60405180910390fd5b600073ffffffffffffffffffffffffffffffffffffffff168273ffffffffffffffffffffffffffffffffffffffff16036109a7576040517f08c379a000000000000000000000000000000000000000000000000000000000815260040161099e9061123e565b60405180910390fd5b6109b2838383610b3f565b60008060008573ffffffffffffffffffffffffffffffffffffffff1673ffffffffffffffffffffffffffffffffffffffff16815260200190815260200160002054905081811015610a38576040517f08c379a0000000000000000000000000000000000000000000000000000000008152600401610a2f906112d0565b60405180910390fd5b8181036000808673ffffffffffffffffffffffffffffffffffffffff1673ffffffffffffffffffffffffffffffffffffffff16815260200190815260200160002081905550816000808573ffffffffffffffffffffffffffffffffffffffff1673ffffffffffffffffffffffffffffffffffffffff168152602001908152602001600020600082825401925050819055508273ffffffffffffffffffffffffffffffffffffffff168473ffffffffffffffffffffffffffffffffffffffff167fddf252ad1be2c89b69c2b068fc378daa952ba7f163c4a11628f55a4df523b3ef84604051610b269190610d43565b60405180910390a3610b39848484610b44565b50505050565b505050565b505050565b600073ffffffffffffffffffffffffffffffffffffffff82169050919050565b6000610b7482610b49565b9050919050565b610b8481610b69565b82525050565b6000602082019050610b9f6000830184610b7b565b92915050565b600081519050919050565b600082825260208201905092915050565b60005b83811015610bdf578082015181840152602081019050610bc4565b60008484015250505050565b6000601f19601f8301169050919050565b6000610c0782610ba5565b610c118185610bb0565b9350610c21818560208601610bc1565b610c2a81610beb565b840191505092915050565b60006020820190508181036000830152610c4f8184610bfc565b905092915050565b600080fd5b610c6581610b69565b8114610c7057600080fd5b50565b600081359050610c8281610c5c565b92915050565b6000819050919050565b610c9b81610c88565b8114610ca657600080fd5b50565b600081359050610cb881610c92565b92915050565b60008060408385031215610cd557610cd4610c57565b5b6000610ce385828601610c73565b9250506020610cf485828601610ca9565b9150509250929050565b60008115159050919050565b610d1381610cfe565b82525050565b6000602082019050610d2e6000830184610d0a565b92915050565b610d3d81610c88565b82525050565b6000602082019050610d586000830184610d34565b92915050565b600080600060608486031215610d7757610d76610c57565b5b6000610d8586828701610c73565b9350506020610d9686828701610c73565b9250506040610da786828701610ca9565b9150509250925092565b600060ff82169050919050565b610dc781610db1565b82525050565b6000602082019050610de26000830184610dbe565b92915050565b600060208284031215610dfe57610dfd610c57565b5b6000610e0c84828501610c73565b91505092915050565b60008060408385031215610e2c57610e2b610c57565b5b6000610e3a85828601610c73565b9250506020610e4b85828601610c73565b9150509250929050565b7f4e487b7100000000000000000000000000000000000000000000000000000000600052602260045260246000fd5b60006002820490506001821680610e9c57607f821691505b602082108103610eaf57610eae610e55565b5b50919050565b7f4e487b7100000000000000000000000000000000000000000000000000000000600052601160045260246000fd5b6000610eef82610c88565b9150610efa83610c88565b9250828201905080821115610f1257610f11610eb5565b5b92915050565b7f45524332303a2064656372656173656420616c6c6f77616e63652062656c6f7760008201527f207a65726f000000000000000000000000000000000000000000000000000000602082015250565b6000610f74602583610bb0565b9150610f7f82610f18565b604082019050919050565b60006020820190508181036000830152610fa381610f67565b9050919050565b7f45524332303a20617070726f76652066726f6d20746865207a65726f2061646460008201527f7265737300000000000000000000000000000000000000000000000000000000602082015250565b6000611006602483610bb0565b915061101182610faa565b604082019050919050565b6000602082019050818103600083015261103581610ff9565b9050919050565b7f45524332303a20617070726f766520746f20746865207a65726f20616464726560008201527f7373000000000000000000000000000000000000000000000000000000000000602082015250565b6000611098602283610bb0565b91506110a38261103c565b604082019050919050565b600060208201905081810360008301526110c78161108b565b9050919050565b7f45524332303a20696e73756666696369656e7420616c6c6f77616e6365000000600082015250565b6000611104601d83610bb0565b915061110f826110ce565b602082019050919050565b60006020820190508181036000830152611133816110f7565b9050919050565b7f45524332303a207472616e736665722066726f6d20746865207a65726f20616460008201527f6472657373000000000000000000000000000000000000000000000000000000602082015250565b6000611196602583610bb0565b91506111a18261113a565b604082019050919050565b600060208201905081810360008301526111c581611189565b9050919050565b7f45524332303a207472616e7366657220746f20746865207a65726f206164647260008201527f6573730000000000000000000000000000000000000000000000000000000000602082015250565b6000611228602383610bb0565b9150611233826111cc565b604082019050919050565b600060208201905081810360008301526112578161121b565b9050919050565b7f45524332303a207472616e7366657220616d6f756e742065786365656473206260008201527f616c616e63650000000000000000000000000000000000000000000000000000602082015250565b60006112ba602683610bb0565b91506112c58261125e565b604082019050919050565b600060208201905081810360008301526112e9816112ad565b905091905056fea2646970667358221220f26ec380a87d8196f93702e0d9903af26f9373bbafa4a48a50d10bb60dc3b57764736f6c6343000814003360806040523480156200001157600080fd5b50604051620019193803806200191983398181016040528101906200003791906200016d565b826000806101000a81548173ffffffffffffffffffffffffffffffffffffffff021916908373ffffffffffffffffffffffffffffffffffffffff16021790555081600160006101000a81548173ffffffffffffffffffffffffffffffffffffffff021916908373ffffffffffffffffffffffffffffffffffffffff16021790555080600281905550505050620001c9565b600080fd5b600073ffffffffffffffffffffffffffffffffffffffff82169050919050565b6000620000fa82620000cd565b9050919050565b6200010c81620000ed565b81146200011857600080fd5b50565b6000815190506200012c8162000101565b92915050565b6000819050919050565b620001478162000132565b81146200015357600080fd5b50565b60008151905062000167816200013c565b92915050565b600080600060608486031215620001895762000188620000c8565b5b600062000199868287016200011b565b9350506020620001ac868287016200011b565b9250506040620001bf8682870162000156565b9150509250925092565b61174080620001d96000396000f3fe608060405234801561001057600080fd5b506004361061007d5760003560e01c80636ff1c9bc1161005b5780636ff1c9bc146100d8578063790ba7b5146100f4578063f37eb72414610126578063f887ea40146101445761007d565b806302d05d3f146100825780634767a4a9146100a05780635fc3ea0b146100bc575b600080fd5b61008a610162565b6040516100979190610d7a565b60405180910390f35b6100ba60048036038101906100b59190610dd0565b610188565b005b6100d660048036038101906100d19190610e29565b610263565b005b6100f260048036038101906100ed9190610e7c565b61041a565b005b61010e60048036038101906101099190610ee1565b61069c565b60405161011d93929190610fa6565b60405180910390f35b61012e610d0f565b60405161013b9190610fdd565b60405180910390f35b61014c610d15565b6040516101599190610d7a565b60405180910390f35b600160009054906101000a900473ffffffffffffffffffffffffffffffffffffffff1681565b600160009054906101000a900473ffffffffffffffffffffffffffffffffffffffff1673ffffffffffffffffffffffffffffffffffffffff163373ffffffffffffffffffffffffffffffffffffffff1614610218576040517f08c379a000000000000000000000000000000000000000000000000000000000815260040161020f90611055565b60405180910390fd5b60006002549050816002819055507fddaa03cd219aab11010be225d3017761c31fec2c555a7add178c4f482d86ee1b8183604051610257929190611075565b60405180910390a15050565b600160009054906101000a900473ffffffffffffffffffffffffffffffffffffffff1673ffffffffffffffffffffffffffffffffffffffff163373ffffffffffffffffffffffffffffffffffffffff16146102f3576040517f08c379a00000000000000000000000000000000000000000000000000000000081526004016102ea90611055565b60405180910390fd5b8273ffffffffffffffffffffffffffffffffffffffff1663a9059cbb82846040518363ffffffff1660e01b815260040161032e92919061109e565b6020604051808303816000875af115801561034d573d6000803e3d6000fd5b505050506040513d601f19601f8201168201806040525081019061037191906110dc565b6103b0576040517f08c379a00000000000000000000000000000000000000000000000000000000081526004016103a790611155565b60405180910390fd5b8073ffffffffffffffffffffffffffffffffffffffff168373ffffffffffffffffffffffffffffffffffffffff167f9b1bfa7fa9ee420a16e124f794c35ac9f90472acc99140eb2f6447c714cad8eb8460405161040d9190610fdd565b60405180910390a3505050565b600160009054906101000a900473ffffffffffffffffffffffffffffffffffffffff1673ffffffffffffffffffffffffffffffffffffffff163373ffffffffffffffffffffffffffffffffffffffff16146104aa576040517f08c379a00000000000000000000000000000000000000000000000000000000081526004016104a190611055565b60405180910390fd5b60008173ffffffffffffffffffffffffffffffffffffffff166370a08231306040518263ffffffff1660e01b81526004016104e59190610d7a565b602060405180830381865afa158015610502573d6000803e3d6000fd5b505050506040513d601f19601f82011682018060405250810190610526919061118a565b90506000811115610698578173ffffffffffffffffffffffffffffffffffffffff1663a9059cbb600160009054906101000a900473ffffffffffffffffffffffffffffffffffffffff16836040518363ffffffff1660e01b815260040161058e92919061109e565b6020604051808303816000875af11580156105ad573d6000803e3d6000fd5b505050506040513d601f19601f820116820180604052508101906105d191906110dc565b610610576040517f08c379a000000000000000000000000000000000000000000000000000000000815260040161060790611203565b60405180910390fd5b600160009054906101000a900473ffffffffffffffffffffffffffffffffffffffff1673ffffffffffffffffffffffffffffffffffffffff168273ffffffffffffffffffffffffffffffffffffffff167f9b1bfa7fa9ee420a16e124f794c35ac9f90472acc99140eb2f6447c714cad8eb8360405161068f9190610fdd565b60405180910390a35b5050565b600080600080881115610769578a73ffffffffffffffffffffffffffffffffffffffff166323b872dd33308b6040518463ffffffff1660e01b81526004016106e693929190611223565b6020604051808303816000875af1158015610705573d6000803e3d6000fd5b505050506040513d601f19601f8201168201806040525081019061072991906110dc565b610768576040517f08c379a000000000000000000000000000000000000000000000000000000000815260040161075f906112a6565b60405180910390fd5b5b6000871115610832578973ffffffffffffffffffffffffffffffffffffffff166323b872dd33308a6040518463ffffffff1660e01b81526004016107af93929190611223565b6020604051808303816000875af11580156107ce573d6000803e3d6000fd5b505050506040513d601f19601f820116820180604052508101906107f291906110dc565b610831576040517f08c379a000000000000000000000000000000000000000000000000000000000815260040161082890611312565b60405180910390fd5b5b60006127106002548a6108459190611361565b61084f91906113d2565b9050600081111561093a578b73ffffffffffffffffffffffffffffffffffffffff1663a9059cbb600160009054906101000a900473ffffffffffffffffffffffffffffffffffffffff16836040518363ffffffff1660e01b81526004016108b792919061109e565b6020604051808303816000875af11580156108d6573d6000803e3d6000fd5b505050506040513d601f19601f820116820180604052508101906108fa91906110dc565b610939576040517f08c379a00000000000000000000000000000000000000000000000000000000081526004016109309061144f565b60405180910390fd5b5b60006127106002548a61094d9190611361565b61095791906113d2565b90506000811115610a42578b73ffffffffffffffffffffffffffffffffffffffff1663a9059cbb600160009054906101000a900473ffffffffffffffffffffffffffffffffffffffff16836040518363ffffffff1660e01b81526004016109bf92919061109e565b6020604051808303816000875af11580156109de573d6000803e3d6000fd5b505050506040513d601f19601f82011682018060405250810190610a0291906110dc565b610a41576040517f08c379a0000000000000000000000000000000000000000000000000000000008152600401610a38906114bb565b60405180910390fd5b5b818a1115610b33578c73ffffffffffffffffffffffffffffffffffffffff1663095ea7b360008054906101000a900473ffffffffffffffffffffffffffffffffffffffff16848d610a9391906114db565b6040518363ffffffff1660e01b8152600401610ab092919061109e565b6020604051808303816000875af1158015610acf573d6000803e3d6000fd5b505050506040513d601f19601f82011682018060405250810190610af391906110dc565b610b32576040517f08c379a0000000000000000000000000000000000000000000000000000000008152600401610b299061155b565b60405180910390fd5b5b80891115610c24578b73ffffffffffffffffffffffffffffffffffffffff1663095ea7b360008054906101000a900473ffffffffffffffffffffffffffffffffffffffff16838c610b8491906114db565b6040518363ffffffff1660e01b8152600401610ba192919061109e565b6020604051808303816000875af1158015610bc0573d6000803e3d6000fd5b505050506040513d601f19601f82011682018060405250810190610be491906110dc565b610c23576040517f08c379a0000000000000000000000000000000000000000000000000000000008152600401610c1a906115c7565b60405180910390fd5b5b60008054906101000a900473ffffffffffffffffffffffffffffffffffffffff1673ffffffffffffffffffffffffffffffffffffffff16635a47ddc38e8e8e868f610c6f91906114db565b868f610c7b91906114db565b8e8e8e6104b042610c8c91906115e7565b6040518a63ffffffff1660e01b8152600401610cb09998979695949392919061162a565b6060604051808303816000875af1158015610ccf573d6000803e3d6000fd5b505050506040513d601f19601f82011682018060405250810190610cf391906116b7565b8095508196508297505050505050985098509895505050505050565b60025481565b60008054906101000a900473ffffffffffffffffffffffffffffffffffffffff1681565b600073ffffffffffffffffffffffffffffffffffffffff82169050919050565b6000610d6482610d39565b9050919050565b610d7481610d59565b82525050565b6000602082019050610d8f6000830184610d6b565b92915050565b600080fd5b6000819050919050565b610dad81610d9a565b8114610db857600080fd5b50565b600081359050610dca81610da4565b92915050565b600060208284031215610de657610de5610d95565b5b6000610df484828501610dbb565b91505092915050565b610e0681610d59565b8114610e1157600080fd5b50565b600081359050610e2381610dfd565b92915050565b600080600060608486031215610e4257610e41610d95565b5b6000610e5086828701610e14565b9350506020610e6186828701610dbb565b9250506040610e7286828701610e14565b9150509250925092565b600060208284031215610e9257610e91610d95565b5b6000610ea084828501610e14565b91505092915050565b60008115159050919050565b610ebe81610ea9565b8114610ec957600080fd5b50565b600081359050610edb81610eb5565b92915050565b600080600080600080600080610100898b031215610f0257610f01610d95565b5b6000610f108b828c01610e14565b9850506020610f218b828c01610e14565b9750506040610f328b828c01610ecc565b9650506060610f438b828c01610dbb565b9550506080610f548b828c01610dbb565b94505060a0610f658b828c01610dbb565b93505060c0610f768b828c01610dbb565b92505060e0610f878b828c01610e14565b9150509295985092959890939650565b610fa081610d9a565b82525050565b6000606082019050610fbb6000830186610f97565b610fc86020830185610f97565b610fd56040830184610f97565b949350505050565b6000602082019050610ff26000830184610f97565b92915050565b600082825260208201905092915050565b7f6f6e6c792063726561746f720000000000000000000000000000000000000000600082015250565b600061103f600c83610ff8565b915061104a82611009565b602082019050919050565b6000602082019050818103600083015261106e81611032565b9050919050565b600060408201905061108a6000830185610f97565b6110976020830184610f97565b9392505050565b60006040820190506110b36000830185610d6b565b6110c06020830184610f97565b9392505050565b6000815190506110d681610eb5565b92915050565b6000602082840312156110f2576110f1610d95565b5b6000611100848285016110c7565b91505092915050565b7f7769746864726177206661696c65640000000000000000000000000000000000600082015250565b600061113f600f83610ff8565b915061114a82611109565b602082019050919050565b6000602082019050818103600083015261116e81611132565b9050919050565b60008151905061118481610da4565b92915050565b6000602082840312156111a05761119f610d95565b5b60006111ae84828501611175565b91505092915050565b7f656d657267656e6379207769746864726177206661696c656400000000000000600082015250565b60006111ed601983610ff8565b91506111f8826111b7565b602082019050919050565b6000602082019050818103600083015261121c816111e0565b9050919050565b60006060820190506112386000830186610d6b565b6112456020830185610d6b565b6112526040830184610f97565b949350505050565b7f7472616e7366657241206661696c656400000000000000000000000000000000600082015250565b6000611290601083610ff8565b915061129b8261125a565b602082019050919050565b600060208201905081810360008301526112bf81611283565b9050919050565b7f7472616e7366657242206661696c656400000000000000000000000000000000600082015250565b60006112fc601083610ff8565b9150611307826112c6565b602082019050919050565b6000602082019050818103600083015261132b816112ef565b9050919050565b7f4e487b7100000000000000000000000000000000000000000000000000000000600052601160045260246000fd5b600061136c82610d9a565b915061137783610d9a565b925082820261138581610d9a565b9150828204841483151761139c5761139b611332565b5b5092915050565b7f4e487b7100000000000000000000000000000000000000000000000000000000600052601260045260246000fd5b60006113dd82610d9a565b91506113e883610d9a565b9250826113f8576113f76113a3565b5b828204905092915050565b7f736b696d41207472616e73666572206661696c65640000000000000000000000600082015250565b6000611439601583610ff8565b915061144482611403565b602082019050919050565b600060208201905081810360008301526114688161142c565b9050919050565b7f736b696d42207472616e73666572206661696c65640000000000000000000000600082015250565b60006114a5601583610ff8565b91506114b08261146f565b602082019050919050565b600060208201905081810360008301526114d481611498565b9050919050565b60006114e682610d9a565b91506114f183610d9a565b925082820390508181111561150957611508611332565b5b92915050565b7f617070726f766541206661696c65640000000000000000000000000000000000600082015250565b6000611545600f83610ff8565b91506115508261150f565b602082019050919050565b6000602082019050818103600083015261157481611538565b9050919050565b7f617070726f766542206661696c65640000000000000000000000000000000000600082015250565b60006115b1600f83610ff8565b91506115bc8261157b565b602082019050919050565b600060208201905081810360008301526115e0816115a4565b9050919050565b60006115f282610d9a565b91506115fd83610d9a565b925082820190508082111561161557611614611332565b5b92915050565b61162481610ea9565b82525050565b600061012082019050611640600083018c610d6b565b61164d602083018b610d6b565b61165a604083018a61161b565b6116676060830189610f97565b6116746080830188610f97565b61168160a0830187610f97565b61168e60c0830186610f97565b61169b60e0830185610d6b565b6116a9610100830184610f97565b9a9950505050505050505050565b6000806000606084860312156116d0576116cf610d95565b5b60006116de86828701611175565b93505060206116ef86828701611175565b925050604061170086828701611175565b915050925092509256fea2646970667358221220886291a10cb78b34a491a2500983248c14563fc6eb8257ff1d19a3b1c7bd758b64736f6c63430008140033a264697066735822122062814a7c611954190ccc1751324edee7570ffe78a4fe69f228e83948a43c75a164736f6c63430008140033",
  "linkReferences": {},
  "deployedLinkReferences": {}
}